{
  "contractName": "BeachSideResort",
  "abi": [
    {
      "inputs": [
        {
          "internalType": "address",
          "name": "_token",
          "type": "address"
        }
      ],
      "stateMutability": "nonpayable",
      "type": "constructor"
    },
    {
      "anonymous": false,
      "inputs": [
        {
          "indexed": true,
          "internalType": "address",
          "name": "previousOwner",
          "type": "address"
        },
        {
          "indexed": true,
          "internalType": "address",
          "name": "newOwner",
          "type": "address"
        }
      ],
      "name": "OwnershipTransferred",
      "type": "event"
    },
    {
      "anonymous": false,
      "inputs": [
        {
          "indexed": false,
          "internalType": "address",
          "name": "account",
          "type": "address"
        }
      ],
      "name": "Paused",
      "type": "event"
    },
    {
      "anonymous": false,
      "inputs": [
        {
          "indexed": false,
          "internalType": "address",
          "name": "account",
          "type": "address"
        }
      ],
      "name": "Unpaused",
      "type": "event"
    },
    {
      "inputs": [],
      "name": "owner",
      "outputs": [
        {
          "internalType": "address",
          "name": "",
          "type": "address"
        }
      ],
      "stateMutability": "view",
      "type": "function",
      "constant": true
    },
    {
      "inputs": [],
      "name": "paused",
      "outputs": [
        {
          "internalType": "bool",
          "name": "",
          "type": "bool"
        }
      ],
      "stateMutability": "view",
      "type": "function",
      "constant": true
    },
    {
      "inputs": [],
      "name": "renounceOwnership",
      "outputs": [],
      "stateMutability": "nonpayable",
      "type": "function"
    },
    {
      "inputs": [],
      "name": "token",
      "outputs": [
        {
          "internalType": "contract IERC20",
          "name": "",
          "type": "address"
        }
      ],
      "stateMutability": "view",
      "type": "function",
      "constant": true
    },
    {
      "inputs": [
        {
          "internalType": "address",
          "name": "newOwner",
          "type": "address"
        }
      ],
      "name": "transferOwnership",
      "outputs": [],
      "stateMutability": "nonpayable",
      "type": "function"
    },
    {
      "inputs": [],
      "name": "getTokenName",
      "outputs": [
        {
          "internalType": "string",
          "name": "",
          "type": "string"
        }
      ],
      "stateMutability": "view",
      "type": "function",
      "constant": true
    },
    {
      "inputs": [],
      "name": "getTokenSymbol",
      "outputs": [
        {
          "internalType": "string",
          "name": "",
          "type": "string"
        }
      ],
      "stateMutability": "view",
      "type": "function",
      "constant": true
    },
    {
      "inputs": [],
      "name": "getTokenDecimals",
      "outputs": [
        {
          "internalType": "uint8",
          "name": "",
          "type": "uint8"
        }
      ],
      "stateMutability": "view",
      "type": "function",
      "constant": true
    },
    {
      "inputs": [],
      "name": "getTokenTotalSupply",
      "outputs": [
        {
          "internalType": "uint256",
          "name": "",
          "type": "uint256"
        }
      ],
      "stateMutability": "view",
      "type": "function",
      "constant": true
    },
    {
      "inputs": [
        {
          "internalType": "address",
          "name": "_addr",
          "type": "address"
        }
      ],
      "name": "getBalanceOf",
      "outputs": [
        {
          "internalType": "uint256",
          "name": "",
          "type": "uint256"
        }
      ],
      "stateMutability": "view",
      "type": "function",
      "constant": true
    }
  ],
  "bytecode": "0x60806040523480156200001157600080fd5b5060405162000ff138038062000ff1833981810160405281019062000037919062000230565b620000576200004b620000fa60201b60201c565b6200010260201b60201c565b60008060146101000a81548160ff02191690831515021790555080600160006101000a81548173ffffffffffffffffffffffffffffffffffffffff021916908373ffffffffffffffffffffffffffffffffffffffff16021790555080600260006101000a81548173ffffffffffffffffffffffffffffffffffffffff021916908373ffffffffffffffffffffffffffffffffffffffff1602179055505062000262565b600033905090565b60008060009054906101000a900473ffffffffffffffffffffffffffffffffffffffff169050816000806101000a81548173ffffffffffffffffffffffffffffffffffffffff021916908373ffffffffffffffffffffffffffffffffffffffff1602179055508173ffffffffffffffffffffffffffffffffffffffff168173ffffffffffffffffffffffffffffffffffffffff167f8be0079c531659141344cd1fd0a4f28419497f9722a3daafe3b4186f6b6457e060405160405180910390a35050565b600080fd5b600073ffffffffffffffffffffffffffffffffffffffff82169050919050565b6000620001f882620001cb565b9050919050565b6200020a81620001eb565b81146200021657600080fd5b50565b6000815190506200022a81620001ff565b92915050565b600060208284031215620002495762000248620001c6565b5b6000620002598482850162000219565b91505092915050565b610d7f80620002726000396000f3fe608060405234801561001057600080fd5b506004361061009e5760003560e01c80638da5cb5b116100665780638da5cb5b146101255780639b96eece14610143578063f1850af814610173578063f2fde38b14610191578063fc0c546a146101ad5761009e565b806324f65ee7146100a357806357df844b146100c15780635c975abb146100df578063715018a6146100fd578063862b092b14610107575b600080fd5b6100ab6101cb565b6040516100b891906107a7565b60405180910390f35b6100c9610263565b6040516100d691906107db565b60405180910390f35b6100e76102fb565b6040516100f49190610811565b60405180910390f35b610105610311565b005b61010f610399565b60405161011c91906108c5565b60405180910390f35b61012d610436565b60405161013a9190610928565b60405180910390f35b61015d60048036038101906101589190610983565b61045f565b60405161016a91906107db565b60405180910390f35b61017b610504565b60405161018891906108c5565b60405180910390f35b6101ab60048036038101906101a69190610983565b6105a1565b005b6101b5610699565b6040516101c29190610a0f565b60405180910390f35b6000600260009054906101000a900473ffffffffffffffffffffffffffffffffffffffff1673ffffffffffffffffffffffffffffffffffffffff1663313ce5676040518163ffffffff1660e01b8152600401602060405180830381865afa15801561023a573d6000803e3d6000fd5b505050506040513d601f19601f8201168201806040525081019061025e9190610a56565b905090565b6000600260009054906101000a900473ffffffffffffffffffffffffffffffffffffffff1673ffffffffffffffffffffffffffffffffffffffff166318160ddd6040518163ffffffff1660e01b8152600401602060405180830381865afa1580156102d2573d6000803e3d6000fd5b505050506040513d601f19601f820116820180604052508101906102f69190610aaf565b905090565b60008060149054906101000a900460ff16905090565b6103196106bf565b73ffffffffffffffffffffffffffffffffffffffff16610337610436565b73ffffffffffffffffffffffffffffffffffffffff161461038d576040517f08c379a000000000000000000000000000000000000000000000000000000000815260040161038490610b28565b60405180910390fd5b61039760006106c7565b565b6060600260009054906101000a900473ffffffffffffffffffffffffffffffffffffffff1673ffffffffffffffffffffffffffffffffffffffff166306fdde036040518163ffffffff1660e01b8152600401600060405180830381865afa158015610408573d6000803e3d6000fd5b505050506040513d6000823e3d601f19601f820116820180604052508101906104319190610c6e565b905090565b60008060009054906101000a900473ffffffffffffffffffffffffffffffffffffffff16905090565b6000600260009054906101000a900473ffffffffffffffffffffffffffffffffffffffff1673ffffffffffffffffffffffffffffffffffffffff166370a08231836040518263ffffffff1660e01b81526004016104bc9190610928565b602060405180830381865afa1580156104d9573d6000803e3d6000fd5b505050506040513d601f19601f820116820180604052508101906104fd9190610aaf565b9050919050565b6060600260009054906101000a900473ffffffffffffffffffffffffffffffffffffffff1673ffffffffffffffffffffffffffffffffffffffff166395d89b416040518163ffffffff1660e01b8152600401600060405180830381865afa158015610573573d6000803e3d6000fd5b505050506040513d6000823e3d601f19601f8201168201806040525081019061059c9190610c6e565b905090565b6105a96106bf565b73ffffffffffffffffffffffffffffffffffffffff166105c7610436565b73ffffffffffffffffffffffffffffffffffffffff161461061d576040517f08c379a000000000000000000000000000000000000000000000000000000000815260040161061490610b28565b60405180910390fd5b600073ffffffffffffffffffffffffffffffffffffffff168173ffffffffffffffffffffffffffffffffffffffff16141561068d576040517f08c379a000000000000000000000000000000000000000000000000000000000815260040161068490610d29565b60405180910390fd5b610696816106c7565b50565b600160009054906101000a900473ffffffffffffffffffffffffffffffffffffffff1681565b600033905090565b60008060009054906101000a900473ffffffffffffffffffffffffffffffffffffffff169050816000806101000a81548173ffffffffffffffffffffffffffffffffffffffff021916908373ffffffffffffffffffffffffffffffffffffffff1602179055508173ffffffffffffffffffffffffffffffffffffffff168173ffffffffffffffffffffffffffffffffffffffff167f8be0079c531659141344cd1fd0a4f28419497f9722a3daafe3b4186f6b6457e060405160405180910390a35050565b600060ff82169050919050565b6107a18161078b565b82525050565b60006020820190506107bc6000830184610798565b92915050565b6000819050919050565b6107d5816107c2565b82525050565b60006020820190506107f060008301846107cc565b92915050565b60008115159050919050565b61080b816107f6565b82525050565b60006020820190506108266000830184610802565b92915050565b600081519050919050565b600082825260208201905092915050565b60005b8381101561086657808201518184015260208101905061084b565b83811115610875576000848401525b50505050565b6000601f19601f8301169050919050565b60006108978261082c565b6108a18185610837565b93506108b1818560208601610848565b6108ba8161087b565b840191505092915050565b600060208201905081810360008301526108df818461088c565b905092915050565b600073ffffffffffffffffffffffffffffffffffffffff82169050919050565b6000610912826108e7565b9050919050565b61092281610907565b82525050565b600060208201905061093d6000830184610919565b92915050565b6000604051905090565b600080fd5b600080fd5b61096081610907565b811461096b57600080fd5b50565b60008135905061097d81610957565b92915050565b6000602082840312156109995761099861094d565b5b60006109a78482850161096e565b91505092915050565b6000819050919050565b60006109d56109d06109cb846108e7565b6109b0565b6108e7565b9050919050565b60006109e7826109ba565b9050919050565b60006109f9826109dc565b9050919050565b610a09816109ee565b82525050565b6000602082019050610a246000830184610a00565b92915050565b610a338161078b565b8114610a3e57600080fd5b50565b600081519050610a5081610a2a565b92915050565b600060208284031215610a6c57610a6b61094d565b5b6000610a7a84828501610a41565b91505092915050565b610a8c816107c2565b8114610a9757600080fd5b50565b600081519050610aa981610a83565b92915050565b600060208284031215610ac557610ac461094d565b5b6000610ad384828501610a9a565b91505092915050565b7f4f776e61626c653a2063616c6c6572206973206e6f7420746865206f776e6572600082015250565b6000610b12602083610837565b9150610b1d82610adc565b602082019050919050565b60006020820190508181036000830152610b4181610b05565b9050919050565b600080fd5b600080fd5b7f4e487b7100000000000000000000000000000000000000000000000000000000600052604160045260246000fd5b610b8a8261087b565b810181811067ffffffffffffffff82111715610ba957610ba8610b52565b5b80604052505050565b6000610bbc610943565b9050610bc88282610b81565b919050565b600067ffffffffffffffff821115610be857610be7610b52565b5b610bf18261087b565b9050602081019050919050565b6000610c11610c0c84610bcd565b610bb2565b905082815260208101848484011115610c2d57610c2c610b4d565b5b610c38848285610848565b509392505050565b600082601f830112610c5557610c54610b48565b5b8151610c65848260208601610bfe565b91505092915050565b600060208284031215610c8457610c8361094d565b5b600082015167ffffffffffffffff811115610ca257610ca1610952565b5b610cae84828501610c40565b91505092915050565b7f4f776e61626c653a206e6577206f776e657220697320746865207a65726f206160008201527f6464726573730000000000000000000000000000000000000000000000000000602082015250565b6000610d13602683610837565b9150610d1e82610cb7565b604082019050919050565b60006020820190508181036000830152610d4281610d06565b905091905056fea26469706673582212200dca49e0f24ac4e3687e557bd4cbe65c1ee5e646c7f500979baef9ec5bce108164736f6c634300080a0033",
  "immutableReferences": {},
  "source": "// SPDX-License-Identifier: MIT\r\npragma solidity ^0.8.0;\r\n\r\nimport \"@openzeppelin/contracts/token/ERC20/IERC20.sol\";\r\nimport \"@openzeppelin/contracts/access/Ownable.sol\";\r\nimport \"@openzeppelin/contracts/security/Pausable.sol\";\r\nimport \"@openzeppelin/contracts/utils/Counters.sol\";\r\nimport \"@openzeppelin/contracts/utils/math/SafeMath.sol\";\r\nimport \"@openzeppelin/contracts/utils/Context.sol\";\r\nimport \"@openzeppelin/contracts/utils/Address.sol\";\r\nimport \"@openzeppelin/contracts/token/ERC20/utils/SafeERC20.sol\";\r\n\r\ncontract TokenContract {\r\n  function name() public view returns (string memory) {}\r\n  function symbol() public view returns (string memory) {}\r\n  function decimals() public view returns (uint8) {}\r\n  function totalSupply() public view returns (uint256) {}\r\n  function balanceOf(address _account) public view returns (uint256) {}\r\n}\r\n\r\ncontract BeachSideResort is Ownable, Pausable {\r\n  using SafeMath for uint;\r\n  using SafeERC20 for IERC20;\r\n\r\n  IERC20 public token;\r\n  TokenContract tc;\r\n\r\n  constructor(address _token) {\r\n    token = IERC20(_token);\r\n    tc = TokenContract(_token);\r\n  }\r\n\r\n  function getTokenName() public view returns (string memory) { \r\n    return tc.name(); \r\n  }\r\n  function getTokenSymbol() public view returns (string memory) { \r\n    return tc.symbol(); \r\n  }\r\n  function getTokenDecimals() public view returns (uint8) { \r\n    return tc.decimals(); \r\n  }\r\n  function getTokenTotalSupply() public view returns (uint256) { \r\n    return tc.totalSupply(); \r\n  }\r\n  function getBalanceOf(address _addr) public view returns (uint256) { \r\n    return tc.balanceOf(_addr); \r\n  }\r\n}",
  "sourcePath": "D:\\Education\\EatTheBlocks\\PRO\\DeFi-Dev-Mastery\\defi-dev-studies\\erc20-tokens\\contracts\\BeachSideResort.sol",
  "compiler": {
    "name": "solc",
    "version": "0.8.10+commit.fc410830.Emscripten.clang"
  },
  "schemaVersion": "3.4.3",
  "updatedAt": "2021-12-08T10:33:32.732Z",
  "networkType": "ethereum",
  "devdoc": {
    "kind": "dev",
    "methods": {
      "owner()": {
        "details": "Returns the address of the current owner."
      },
      "paused()": {
        "details": "Returns true if the contract is paused, and false otherwise."
      },
      "renounceOwnership()": {
        "details": "Leaves the contract without owner. It will not be possible to call `onlyOwner` functions anymore. Can only be called by the current owner. NOTE: Renouncing ownership will leave the contract without an owner, thereby removing any functionality that is only available to the owner."
      },
      "transferOwnership(address)": {
        "details": "Transfers ownership of the contract to a new account (`newOwner`). Can only be called by the current owner."
      }
    },
    "version": 1
  },
  "userdoc": {
    "kind": "user",
    "methods": {},
    "version": 1
  }
}