{
  "contractName": "ContractA",
  "abi": [
    {
      "inputs": [
        {
          "internalType": "address",
          "name": "_token",
          "type": "address"
        },
        {
          "internalType": "address",
          "name": "_contractB",
          "type": "address"
        }
      ],
      "stateMutability": "nonpayable",
      "type": "constructor"
    },
    {
      "inputs": [],
      "name": "contractB",
      "outputs": [
        {
          "internalType": "contract ContractB",
          "name": "",
          "type": "address"
        }
      ],
      "stateMutability": "view",
      "type": "function"
    },
    {
      "inputs": [],
      "name": "token",
      "outputs": [
        {
          "internalType": "contract IERC20",
          "name": "",
          "type": "address"
        }
      ],
      "stateMutability": "view",
      "type": "function"
    },
    {
      "inputs": [
        {
          "internalType": "uint256",
          "name": "amount",
          "type": "uint256"
        }
      ],
      "name": "deposit",
      "outputs": [],
      "stateMutability": "nonpayable",
      "type": "function"
    },
    {
      "inputs": [
        {
          "internalType": "uint256",
          "name": "amount",
          "type": "uint256"
        }
      ],
      "name": "withdraw",
      "outputs": [],
      "stateMutability": "nonpayable",
      "type": "function"
    }
  ],
  "bytecode": "0x608060405234801561001057600080fd5b50604051610833380380610833833981810160405281019061003291906100cf565b816000806101000a81548173ffffffffffffffffffffffffffffffffffffffff021916908373ffffffffffffffffffffffffffffffffffffffff16021790555080600160006101000a81548173ffffffffffffffffffffffffffffffffffffffff021916908373ffffffffffffffffffffffffffffffffffffffff160217905550505061015d565b6000815190506100c981610146565b92915050565b600080604083850312156100e6576100e5610141565b5b60006100f4858286016100ba565b9250506020610105858286016100ba565b9150509250929050565b600061011a82610121565b9050919050565b600073ffffffffffffffffffffffffffffffffffffffff82169050919050565b600080fd5b61014f8161010f565b811461015a57600080fd5b50565b6106c78061016c6000396000f3fe608060405234801561001057600080fd5b506004361061004c5760003560e01c80632e1a7d4d146100515780639ff8a3681461006d578063b6b55f251461008b578063fc0c546a146100a7575b600080fd5b61006b600480360381019061006691906104b4565b6100c5565b005b610075610203565b604051610082919061057d565b60405180910390f35b6100a560048036038101906100a091906104b4565b610229565b005b6100af610439565b6040516100bc9190610598565b60405180910390f35b600160009054906101000a900473ffffffffffffffffffffffffffffffffffffffff1673ffffffffffffffffffffffffffffffffffffffff16632e1a7d4d826040518263ffffffff1660e01b815260040161012091906105b3565b600060405180830381600087803b15801561013a57600080fd5b505af115801561014e573d6000803e3d6000fd5b5050505060008054906101000a900473ffffffffffffffffffffffffffffffffffffffff1673ffffffffffffffffffffffffffffffffffffffff1663a9059cbb33836040518363ffffffff1660e01b81526004016101ad929190610554565b602060405180830381600087803b1580156101c757600080fd5b505af11580156101db573d6000803e3d6000fd5b505050506040513d601f19601f820116820180604052508101906101ff9190610487565b5050565b600160009054906101000a900473ffffffffffffffffffffffffffffffffffffffff1681565b60008054906101000a900473ffffffffffffffffffffffffffffffffffffffff1673ffffffffffffffffffffffffffffffffffffffff166323b872dd3330846040518463ffffffff1660e01b81526004016102869392919061051d565b602060405180830381600087803b1580156102a057600080fd5b505af11580156102b4573d6000803e3d6000fd5b505050506040513d601f19601f820116820180604052508101906102d89190610487565b5060008054906101000a900473ffffffffffffffffffffffffffffffffffffffff1673ffffffffffffffffffffffffffffffffffffffff1663095ea7b3600160009054906101000a900473ffffffffffffffffffffffffffffffffffffffff16836040518363ffffffff1660e01b8152600401610356929190610554565b602060405180830381600087803b15801561037057600080fd5b505af1158015610384573d6000803e3d6000fd5b505050506040513d601f19601f820116820180604052508101906103a89190610487565b50600160009054906101000a900473ffffffffffffffffffffffffffffffffffffffff1673ffffffffffffffffffffffffffffffffffffffff1663b6b55f25826040518263ffffffff1660e01b815260040161040491906105b3565b600060405180830381600087803b15801561041e57600080fd5b505af1158015610432573d6000803e3d6000fd5b5050505050565b60008054906101000a900473ffffffffffffffffffffffffffffffffffffffff1681565b60008151905061046c81610663565b92915050565b6000813590506104818161067a565b92915050565b60006020828403121561049d5761049c61065e565b5b60006104ab8482850161045d565b91505092915050565b6000602082840312156104ca576104c961065e565b5b60006104d884828501610472565b91505092915050565b6104ea816105ce565b82525050565b6104f981610616565b82525050565b61050881610628565b82525050565b6105178161060c565b82525050565b600060608201905061053260008301866104e1565b61053f60208301856104e1565b61054c604083018461050e565b949350505050565b600060408201905061056960008301856104e1565b610576602083018461050e565b9392505050565b600060208201905061059260008301846104f0565b92915050565b60006020820190506105ad60008301846104ff565b92915050565b60006020820190506105c8600083018461050e565b92915050565b60006105d9826105ec565b9050919050565b60008115159050919050565b600073ffffffffffffffffffffffffffffffffffffffff82169050919050565b6000819050919050565b60006106218261063a565b9050919050565b60006106338261063a565b9050919050565b60006106458261064c565b9050919050565b6000610657826105ec565b9050919050565b600080fd5b61066c816105e0565b811461067757600080fd5b50565b6106838161060c565b811461068e57600080fd5b5056fea2646970667358221220117100ccb627ec15204d01dda7e30ef2f0deb0b4a034e2ef0f55b9c964cfde7b64736f6c63430008070033",
  "immutableReferences": {},
  "source": "// SPDX-License-Identifier: MIT\r\npragma solidity ^0.8.0;\r\n\r\nimport \"@openzeppelin/contracts/token/ERC20/IERC20.sol\";\r\n\r\ninterface ContractB {\r\n  function deposit(uint amount) external;\r\n  function withdraw(uint amount) external;\r\n}\r\n\r\ncontract ContractA {\r\n  IERC20 public token;\r\n  ContractB public contractB;\r\n\r\n  constructor(address _token, address _contractB){\r\n    token = IERC20(_token);\r\n    contractB = ContractB(_contractB);\r\n  }\r\n\r\n  function deposit(uint amount) external {\r\n    token.transferFrom(msg.sender, address(this), amount);\r\n    token.approve(address(contractB), amount);\r\n    contractB.deposit(amount);\r\n  }\r\n\r\n  function withdraw(uint amount) external {\r\n    contractB.withdraw(amount);\r\n    token.transfer(msg.sender, amount);\r\n  }\r\n}\r\n",
  "sourcePath": "D:/Education/EatTheBlocks/PRO/DeFi-Dev-Mastery/defi-dev-studies/erc20-tokens/contracts/ContractA.sol",
  "compiler": {
    "name": "solc",
    "version": "0.8.7+commit.e28d00a7.Emscripten.clang"
  },
  "schemaVersion": "3.3.2",
  "updatedAt": "2021-08-30T14:40:36.335Z",
  "devdoc": {
    "kind": "dev",
    "methods": {},
    "version": 1
  },
  "userdoc": {
    "kind": "user",
    "methods": {},
    "version": 1
  }
}