{
  "contractName": "TokenContract",
  "abi": [
    {
      "inputs": [],
      "name": "name",
      "outputs": [
        {
          "internalType": "string",
          "name": "",
          "type": "string"
        }
      ],
      "stateMutability": "view",
      "type": "function"
    },
    {
      "inputs": [],
      "name": "symbol",
      "outputs": [
        {
          "internalType": "string",
          "name": "",
          "type": "string"
        }
      ],
      "stateMutability": "view",
      "type": "function"
    },
    {
      "inputs": [],
      "name": "decimals",
      "outputs": [
        {
          "internalType": "uint8",
          "name": "",
          "type": "uint8"
        }
      ],
      "stateMutability": "view",
      "type": "function"
    },
    {
      "inputs": [],
      "name": "totalSupply",
      "outputs": [
        {
          "internalType": "uint256",
          "name": "",
          "type": "uint256"
        }
      ],
      "stateMutability": "view",
      "type": "function"
    },
    {
      "inputs": [
        {
          "internalType": "address",
          "name": "_account",
          "type": "address"
        }
      ],
      "name": "balanceOf",
      "outputs": [
        {
          "internalType": "uint256",
          "name": "",
          "type": "uint256"
        }
      ],
      "stateMutability": "view",
      "type": "function"
    }
  ],
  "bytecode": "0x608060405234801561001057600080fd5b5061030b806100206000396000f3fe608060405234801561001057600080fd5b50600436106100575760003560e01c806306fdde031461005c57806318160ddd1461007a578063313ce5671461009857806370a08231146100b657806395d89b41146100e6575b600080fd5b610064610104565b60405161007191906101b8565b60405180910390f35b610082610109565b60405161008f91906101f3565b60405180910390f35b6100a061010e565b6040516100ad919061022a565b60405180910390f35b6100d060048036038101906100cb91906102a8565b610113565b6040516100dd91906101f3565b60405180910390f35b6100ee61011a565b6040516100fb91906101b8565b60405180910390f35b606090565b600090565b600090565b6000919050565b606090565b600081519050919050565b600082825260208201905092915050565b60005b8381101561015957808201518184015260208101905061013e565b83811115610168576000848401525b50505050565b6000601f19601f8301169050919050565b600061018a8261011f565b610194818561012a565b93506101a481856020860161013b565b6101ad8161016e565b840191505092915050565b600060208201905081810360008301526101d2818461017f565b905092915050565b6000819050919050565b6101ed816101da565b82525050565b600060208201905061020860008301846101e4565b92915050565b600060ff82169050919050565b6102248161020e565b82525050565b600060208201905061023f600083018461021b565b92915050565b600080fd5b600073ffffffffffffffffffffffffffffffffffffffff82169050919050565b60006102758261024a565b9050919050565b6102858161026a565b811461029057600080fd5b50565b6000813590506102a28161027c565b92915050565b6000602082840312156102be576102bd610245565b5b60006102cc84828501610293565b9150509291505056fea26469706673582212209ec8672303fb884456d46e5304d49f2703387e0ce1f48feb9347c80369ba1fa564736f6c634300080a0033",
  "immutableReferences": {},
  "source": "// SPDX-License-Identifier: MIT\r\npragma solidity ^0.8.0;\r\n\r\nimport \"@openzeppelin/contracts/token/ERC20/IERC20.sol\";\r\nimport \"@openzeppelin/contracts/access/Ownable.sol\";\r\nimport \"@openzeppelin/contracts/security/Pausable.sol\";\r\nimport \"@openzeppelin/contracts/utils/Counters.sol\";\r\nimport \"@openzeppelin/contracts/utils/math/SafeMath.sol\";\r\nimport \"@openzeppelin/contracts/utils/Context.sol\";\r\nimport \"@openzeppelin/contracts/utils/Address.sol\";\r\nimport \"@openzeppelin/contracts/token/ERC20/utils/SafeERC20.sol\";\r\n\r\ncontract TokenContract {\r\n  function name() public view returns (string memory) {}\r\n  function symbol() public view returns (string memory) {}\r\n  function decimals() public view returns (uint8) {}\r\n  function totalSupply() public view returns (uint256) {}\r\n  function balanceOf(address _account) public view returns (uint256) {}\r\n}\r\n\r\ncontract BeachSideResort is Ownable, Pausable {\r\n  using SafeMath for uint;\r\n  using SafeERC20 for IERC20;\r\n\r\n  IERC20 public token;\r\n  TokenContract tc;\r\n\r\n  constructor(address _token) {\r\n    token = IERC20(_token);\r\n    tc = TokenContract(_token);\r\n  }\r\n\r\n  function getTokenName() public view returns (string memory) { \r\n    return tc.name(); \r\n  }\r\n  function getTokenSymbol() public view returns (string memory) { \r\n    return tc.symbol(); \r\n  }\r\n  function getTokenDecimals() public view returns (uint8) { \r\n    return tc.decimals(); \r\n  }\r\n  function getTokenTotalSupply() public view returns (uint256) { \r\n    return tc.totalSupply(); \r\n  }\r\n  function getBalanceOf(address _addr) public view returns (uint256) { \r\n    return tc.balanceOf(_addr); \r\n  }\r\n}",
  "sourcePath": "D:\\Education\\EatTheBlocks\\PRO\\DeFi-Dev-Mastery\\defi-dev-studies\\erc20-tokens\\contracts\\BeachSideResort.sol",
  "compiler": {
    "name": "solc",
    "version": "0.8.10+commit.fc410830.Emscripten.clang"
  },
  "schemaVersion": "3.4.3",
  "updatedAt": "2021-12-08T06:27:44.338Z",
  "devdoc": {
    "kind": "dev",
    "methods": {},
    "version": 1
  },
  "userdoc": {
    "kind": "user",
    "methods": {},
    "version": 1
  }
}